{
  "_format": "hh-sol-artifact-1",
  "contractName": "MyEpicNFT",
  "sourceName": "contracts/MyEpicNFT.sol",
  "abi": [
    {
      "inputs": [],
      "stateMutability": "nonpayable",
      "type": "constructor"
    },
    {
      "anonymous": false,
      "inputs": [
        {
          "indexed": true,
          "internalType": "address",
          "name": "owner",
          "type": "address"
        },
        {
          "indexed": true,
          "internalType": "address",
          "name": "approved",
          "type": "address"
        },
        {
          "indexed": true,
          "internalType": "uint256",
          "name": "tokenId",
          "type": "uint256"
        }
      ],
      "name": "Approval",
      "type": "event"
    },
    {
      "anonymous": false,
      "inputs": [
        {
          "indexed": true,
          "internalType": "address",
          "name": "owner",
          "type": "address"
        },
        {
          "indexed": true,
          "internalType": "address",
          "name": "operator",
          "type": "address"
        },
        {
          "indexed": false,
          "internalType": "bool",
          "name": "approved",
          "type": "bool"
        }
      ],
      "name": "ApprovalForAll",
      "type": "event"
    },
    {
      "anonymous": false,
      "inputs": [
        {
          "indexed": false,
          "internalType": "address",
          "name": "sender",
          "type": "address"
        },
        {
          "indexed": false,
          "internalType": "uint256",
          "name": "tokenId",
          "type": "uint256"
        }
      ],
      "name": "NewEpicNFTMinted",
      "type": "event"
    },
    {
      "anonymous": false,
      "inputs": [
        {
          "indexed": true,
          "internalType": "address",
          "name": "from",
          "type": "address"
        },
        {
          "indexed": true,
          "internalType": "address",
          "name": "to",
          "type": "address"
        },
        {
          "indexed": true,
          "internalType": "uint256",
          "name": "tokenId",
          "type": "uint256"
        }
      ],
      "name": "Transfer",
      "type": "event"
    },
    {
      "inputs": [
        {
          "internalType": "address",
          "name": "",
          "type": "address"
        }
      ],
      "name": "Wallets",
      "outputs": [
        {
          "internalType": "bool",
          "name": "",
          "type": "bool"
        }
      ],
      "stateMutability": "view",
      "type": "function"
    },
    {
      "inputs": [
        {
          "internalType": "address",
          "name": "to",
          "type": "address"
        },
        {
          "internalType": "uint256",
          "name": "tokenId",
          "type": "uint256"
        }
      ],
      "name": "approve",
      "outputs": [],
      "stateMutability": "nonpayable",
      "type": "function"
    },
    {
      "inputs": [
        {
          "internalType": "address",
          "name": "owner",
          "type": "address"
        }
      ],
      "name": "balanceOf",
      "outputs": [
        {
          "internalType": "uint256",
          "name": "",
          "type": "uint256"
        }
      ],
      "stateMutability": "view",
      "type": "function"
    },
    {
      "inputs": [
        {
          "internalType": "string[3]",
          "name": "champs",
          "type": "string[3]"
        }
      ],
      "name": "champToSvg",
      "outputs": [
        {
          "internalType": "string",
          "name": "",
          "type": "string"
        }
      ],
      "stateMutability": "view",
      "type": "function"
    },
    {
      "inputs": [
        {
          "internalType": "address",
          "name": "_wallet",
          "type": "address"
        }
      ],
      "name": "contains",
      "outputs": [
        {
          "internalType": "bool",
          "name": "",
          "type": "bool"
        }
      ],
      "stateMutability": "view",
      "type": "function"
    },
    {
      "inputs": [
        {
          "internalType": "uint256",
          "name": "tokenId",
          "type": "uint256"
        }
      ],
      "name": "getApproved",
      "outputs": [
        {
          "internalType": "address",
          "name": "",
          "type": "address"
        }
      ],
      "stateMutability": "view",
      "type": "function"
    },
    {
      "inputs": [],
      "name": "getMaxSupply",
      "outputs": [
        {
          "internalType": "uint256",
          "name": "",
          "type": "uint256"
        }
      ],
      "stateMutability": "pure",
      "type": "function"
    },
    {
      "inputs": [],
      "name": "getTotalMinted",
      "outputs": [
        {
          "internalType": "uint256",
          "name": "",
          "type": "uint256"
        }
      ],
      "stateMutability": "view",
      "type": "function"
    },
    {
      "inputs": [
        {
          "internalType": "address",
          "name": "owner",
          "type": "address"
        },
        {
          "internalType": "address",
          "name": "operator",
          "type": "address"
        }
      ],
      "name": "isApprovedForAll",
      "outputs": [
        {
          "internalType": "bool",
          "name": "",
          "type": "bool"
        }
      ],
      "stateMutability": "view",
      "type": "function"
    },
    {
      "inputs": [],
      "name": "makeAnEpicNFT",
      "outputs": [],
      "stateMutability": "nonpayable",
      "type": "function"
    },
    {
      "inputs": [],
      "name": "name",
      "outputs": [
        {
          "internalType": "string",
          "name": "",
          "type": "string"
        }
      ],
      "stateMutability": "view",
      "type": "function"
    },
    {
      "inputs": [
        {
          "internalType": "uint256",
          "name": "tokenId",
          "type": "uint256"
        }
      ],
      "name": "ownerOf",
      "outputs": [
        {
          "internalType": "address",
          "name": "",
          "type": "address"
        }
      ],
      "stateMutability": "view",
      "type": "function"
    },
    {
      "inputs": [
        {
          "internalType": "uint256",
          "name": "tokenId",
          "type": "uint256"
        }
      ],
      "name": "pickRandomFirstWord",
      "outputs": [
        {
          "internalType": "string",
          "name": "",
          "type": "string"
        }
      ],
      "stateMutability": "view",
      "type": "function"
    },
    {
      "inputs": [
        {
          "internalType": "uint256",
          "name": "tokenId",
          "type": "uint256"
        }
      ],
      "name": "pickRandomSecondWord",
      "outputs": [
        {
          "internalType": "string",
          "name": "",
          "type": "string"
        }
      ],
      "stateMutability": "view",
      "type": "function"
    },
    {
      "inputs": [
        {
          "internalType": "uint256",
          "name": "tokenId",
          "type": "uint256"
        }
      ],
      "name": "pickRandomThirdWord",
      "outputs": [
        {
          "internalType": "string",
          "name": "",
          "type": "string"
        }
      ],
      "stateMutability": "view",
      "type": "function"
    },
    {
      "inputs": [
        {
          "internalType": "address",
          "name": "from",
          "type": "address"
        },
        {
          "internalType": "address",
          "name": "to",
          "type": "address"
        },
        {
          "internalType": "uint256",
          "name": "tokenId",
          "type": "uint256"
        }
      ],
      "name": "safeTransferFrom",
      "outputs": [],
      "stateMutability": "nonpayable",
      "type": "function"
    },
    {
      "inputs": [
        {
          "internalType": "address",
          "name": "from",
          "type": "address"
        },
        {
          "internalType": "address",
          "name": "to",
          "type": "address"
        },
        {
          "internalType": "uint256",
          "name": "tokenId",
          "type": "uint256"
        },
        {
          "internalType": "bytes",
          "name": "_data",
          "type": "bytes"
        }
      ],
      "name": "safeTransferFrom",
      "outputs": [],
      "stateMutability": "nonpayable",
      "type": "function"
    },
    {
      "inputs": [
        {
          "internalType": "address",
          "name": "operator",
          "type": "address"
        },
        {
          "internalType": "bool",
          "name": "approved",
          "type": "bool"
        }
      ],
      "name": "setApprovalForAll",
      "outputs": [],
      "stateMutability": "nonpayable",
      "type": "function"
    },
    {
      "inputs": [
        {
          "internalType": "address",
          "name": "_wallet",
          "type": "address"
        }
      ],
      "name": "setWallet",
      "outputs": [],
      "stateMutability": "nonpayable",
      "type": "function"
    },
    {
      "inputs": [
        {
          "internalType": "bytes4",
          "name": "interfaceId",
          "type": "bytes4"
        }
      ],
      "name": "supportsInterface",
      "outputs": [
        {
          "internalType": "bool",
          "name": "",
          "type": "bool"
        }
      ],
      "stateMutability": "view",
      "type": "function"
    },
    {
      "inputs": [],
      "name": "symbol",
      "outputs": [
        {
          "internalType": "string",
          "name": "",
          "type": "string"
        }
      ],
      "stateMutability": "view",
      "type": "function"
    },
    {
      "inputs": [
        {
          "internalType": "uint256",
          "name": "tokenId",
          "type": "uint256"
        }
      ],
      "name": "tokenURI",
      "outputs": [
        {
          "internalType": "string",
          "name": "",
          "type": "string"
        }
      ],
      "stateMutability": "view",
      "type": "function"
    },
    {
      "inputs": [],
      "name": "totalMinted",
      "outputs": [
        {
          "internalType": "uint256",
          "name": "_value",
          "type": "uint256"
        }
      ],
      "stateMutability": "view",
      "type": "function"
    },
    {
      "inputs": [
        {
          "internalType": "address",
          "name": "from",
          "type": "address"
        },
        {
          "internalType": "address",
          "name": "to",
          "type": "address"
        },
        {
          "internalType": "uint256",
          "name": "tokenId",
          "type": "uint256"
        }
      ],
      "name": "transferFrom",
      "outputs": [],
      "stateMutability": "nonpayable",
      "type": "function"
    }
  ],
  "bytecode": "0x60806040526040518060c001604052806084815260200162004c1e60849139600990805190602001906200003592919062000748565b506040518060c001604052806040518060400160405280600781526020017f4c65652073696e0000000000000000000000000000000000000000000000000081525081526020016040518060400160405280600681526020017f546872657368000000000000000000000000000000000000000000000000000081525081526020016040518060400160405280600581526020017f5661796e6500000000000000000000000000000000000000000000000000000081525081526020016040518060400160405280600481526020017f4b61796e0000000000000000000000000000000000000000000000000000000081525081526020016040518060400160405280600281526020017f566900000000000000000000000000000000000000000000000000000000000081525081526020016040518060400160405280600a81526020017f426c69747a6372616e6b00000000000000000000000000000000000000000000815250815250600a906006620001b3929190620007d9565b506040518060c001604052806040518060400160405280600581526020017f426172646f00000000000000000000000000000000000000000000000000000081525081526020016040518060400160405280600581526020017f46696f726100000000000000000000000000000000000000000000000000000081525081526020016040518060400160405280600381526020017f5a6163000000000000000000000000000000000000000000000000000000000081525081526020016040518060400160405280600581526020017f596173756f00000000000000000000000000000000000000000000000000000081525081526020016040518060400160405280600581526020017f456c69736500000000000000000000000000000000000000000000000000000081525081526020016040518060400160405280600781526020017f4e6964616c656500000000000000000000000000000000000000000000000000815250815250600b90600662000331929190620007d9565b506040518060c001604052806040518060400160405280600481526020017f46697a7a0000000000000000000000000000000000000000000000000000000081525081526020016040518060400160405280600781526020017f4e6964616c65650000000000000000000000000000000000000000000000000081525081526020016040518060400160405280600781526020017f5761727769636b0000000000000000000000000000000000000000000000000081525081526020016040518060400160405280600481526020017f5368656e0000000000000000000000000000000000000000000000000000000081525081526020016040518060400160405280600781526020017f4b696e647265640000000000000000000000000000000000000000000000000081525081526020016040518060400160405280600581526020017f5461726963000000000000000000000000000000000000000000000000000000815250815250600c906006620004af929190620007d9565b5060405180606001604052806040518060400160405280600281526020017f323500000000000000000000000000000000000000000000000000000000000081525081526020016040518060400160405280600281526020017f353000000000000000000000000000000000000000000000000000000000000081525081526020016040518060400160405280600281526020017f3735000000000000000000000000000000000000000000000000000000000000815250815250600d9060036200057c92919062000840565b503480156200058a57600080fd5b506040518060400160405280600681526020017f4c6f6c4e465400000000000000000000000000000000000000000000000000008152506040518060400160405280600381526020017f4c4f4c000000000000000000000000000000000000000000000000000000000081525081600090805190602001906200060f92919062000748565b5080600190805190602001906200062892919062000748565b505050620006766040518060400160405280601e81526020017f54686973206973206d79204e465420636f6e74726163742e20576f61682100008152506200067c60201b620015011760201c565b62000a61565b6200071c8160405160240162000693919062000975565b6040516020818303038152906040527f41304fac000000000000000000000000000000000000000000000000000000007bffffffffffffffffffffffffffffffffffffffffffffffffffffffff19166020820180517bffffffffffffffffffffffffffffffffffffffffffffffffffffffff83818316178352505050506200071f60201b60201c565b50565b60008151905060006a636f6e736f6c652e6c6f679050602083016000808483855afa5050505050565b8280546200075690620009eb565b90600052602060002090601f0160209004810192826200077a5760008555620007c6565b82601f106200079557805160ff1916838001178555620007c6565b82800160010185558215620007c6579182015b82811115620007c5578251825591602001919060010190620007a8565b5b509050620007d59190620008a7565b5090565b8280548282559060005260206000209081019282156200082d579160200282015b828111156200082c5782518290805190602001906200081b92919062000748565b5091602001919060010190620007fa565b5b5090506200083c9190620008c6565b5090565b82805482825590600052602060002090810192821562000894579160200282015b82811115620008935782518290805190602001906200088292919062000748565b509160200191906001019062000861565b5b509050620008a39190620008c6565b5090565b5b80821115620008c2576000816000905550600101620008a8565b5090565b5b80821115620008ea5760008181620008e09190620008ee565b50600101620008c7565b5090565b508054620008fc90620009eb565b6000825580601f1062000910575062000931565b601f016020900490600052602060002090810190620009309190620008a7565b5b50565b6000620009418262000999565b6200094d8185620009a4565b93506200095f818560208601620009b5565b6200096a8162000a50565b840191505092915050565b6000602082019050818103600083015262000991818462000934565b905092915050565b600081519050919050565b600082825260208201905092915050565b60005b83811015620009d5578082015181840152602081019050620009b8565b83811115620009e5576000848401525b50505050565b6000600282049050600182168062000a0457607f821691505b6020821081141562000a1b5762000a1a62000a21565b5b50919050565b7f4e487b7100000000000000000000000000000000000000000000000000000000600052602260045260246000fd5b6000601f19601f8301169050919050565b6141ad8062000a716000396000f3fe608060405234801561001057600080fd5b50600436106101585760003560e01c806395d89b41116100c3578063b88d4fde1161007c578063b88d4fde14610413578063c575757a1461042f578063c87b56dd1461045f578063de9d132f1461048f578063deaa59df14610499578063e985e9c5146104b557610158565b806395d89b411461032b578063a22cb46514610349578063a2309ff814610365578063af13703814610383578063af154011146103b3578063b187301f146103e357610158565b80632de38d68116101155780632de38d681461023157806342842e0e146102615780634c0f38c21461027d5780635dbe47e81461029b5780636352211e146102cb57806370a08231146102fb57610158565b806301ffc9a71461015d57806306fdde031461018d578063081812fc146101ab578063095ea7b3146101db5780630ca1c5c9146101f757806323b872dd14610215575b600080fd5b61017760048036038101906101729190612a25565b6104e5565b604051610184919061398d565b60405180910390f35b6101956105c7565b6040516101a291906139a8565b60405180910390f35b6101c560048036038101906101c09190612a77565b610659565b6040516101d291906138fd565b60405180910390f35b6101f560048036038101906101f091906129a8565b6106de565b005b6101ff6107f6565b60405161020c9190613c48565b60405180910390f35b61022f600480360381019061022a91906128a2565b610807565b005b61024b60048036038101906102469190612a77565b610867565b60405161025891906139a8565b60405180910390f35b61027b600480360381019061027691906128a2565b610985565b005b6102856109a5565b6040516102929190613c48565b60405180910390f35b6102b560048036038101906102b0919061283d565b6109ae565b6040516102c2919061398d565b60405180910390f35b6102e560048036038101906102e09190612a77565b610a04565b6040516102f291906138fd565b60405180910390f35b6103156004803603810190610310919061283d565b610ab6565b6040516103229190613c48565b60405180910390f35b610333610b6e565b60405161034091906139a8565b60405180910390f35b610363600480360381019061035e919061296c565b610c00565b005b61036d610c16565b60405161037a9190613c48565b60405180910390f35b61039d600480360381019061039891906129e4565b610c22565b6040516103aa91906139a8565b60405180910390f35b6103cd60048036038101906103c8919061283d565b610d07565b6040516103da919061398d565b60405180910390f35b6103fd60048036038101906103f89190612a77565b610d27565b60405161040a91906139a8565b60405180910390f35b61042d600480360381019061042891906128f1565b610e45565b005b61044960048036038101906104449190612a77565b610ea7565b60405161045691906139a8565b60405180910390f35b61047960048036038101906104749190612a77565b610fc5565b60405161048691906139a8565b60405180910390f35b610497611117565b005b6104b360048036038101906104ae919061283d565b611412565b005b6104cf60048036038101906104ca9190612866565b61146d565b6040516104dc919061398d565b60405180910390f35b60007f80ac58cd000000000000000000000000000000000000000000000000000000007bffffffffffffffffffffffffffffffffffffffffffffffffffffffff1916827bffffffffffffffffffffffffffffffffffffffffffffffffffffffff191614806105b057507f5b5e139f000000000000000000000000000000000000000000000000000000007bffffffffffffffffffffffffffffffffffffffffffffffffffffffff1916827bffffffffffffffffffffffffffffffffffffffffffffffffffffffff1916145b806105c057506105bf8261159a565b5b9050919050565b6060600080546105d690613f3d565b80601f016020809104026020016040519081016040528092919081815260200182805461060290613f3d565b801561064f5780601f106106245761010080835404028352916020019161064f565b820191906000526020600020905b81548152906001019060200180831161063257829003601f168201915b5050505050905090565b600061066482611604565b6106a3576040517f08c379a000000000000000000000000000000000000000000000000000000000815260040161069a90613b88565b60405180910390fd5b6004600083815260200190815260200160002060009054906101000a900473ffffffffffffffffffffffffffffffffffffffff169050919050565b60006106e982610a04565b90508073ffffffffffffffffffffffffffffffffffffffff168373ffffffffffffffffffffffffffffffffffffffff16141561075a576040517f08c379a000000000000000000000000000000000000000000000000000000000815260040161075190613be8565b60405180910390fd5b8073ffffffffffffffffffffffffffffffffffffffff16610779611670565b73ffffffffffffffffffffffffffffffffffffffff1614806107a857506107a7816107a2611670565b61146d565b5b6107e7576040517f08c379a00000000000000000000000000000000000000000000000000000000081526004016107de90613ac8565b60405180910390fd5b6107f18383611678565b505050565b60006108026008611731565b905090565b610818610812611670565b8261173f565b610857576040517f08c379a000000000000000000000000000000000000000000000000000000000815260040161084e90613c08565b60405180910390fd5b61086283838361181d565b505050565b6060600061089b61087784611a79565b604051602001610887919061388c565b604051602081830303815290604052611c26565b9050600a80549050816108ae9190613fb8565b9050600a81815481106108ea577f4e487b7100000000000000000000000000000000000000000000000000000000600052603260045260246000fd5b9060005260206000200180546108ff90613f3d565b80601f016020809104026020016040519081016040528092919081815260200182805461092b90613f3d565b80156109785780601f1061094d57610100808354040283529160200191610978565b820191906000526020600020905b81548152906001019060200180831161095b57829003601f168201915b5050505050915050919050565b6109a083838360405180602001604052806000815250610e45565b505050565b60006032905090565b6000600e60008373ffffffffffffffffffffffffffffffffffffffff1673ffffffffffffffffffffffffffffffffffffffff16815260200190815260200160002060009054906101000a900460ff169050919050565b6000806002600084815260200190815260200160002060009054906101000a900473ffffffffffffffffffffffffffffffffffffffff169050600073ffffffffffffffffffffffffffffffffffffffff168173ffffffffffffffffffffffffffffffffffffffff161415610aad576040517f08c379a0000000000000000000000000000000000000000000000000000000008152600401610aa490613b08565b60405180910390fd5b80915050919050565b60008073ffffffffffffffffffffffffffffffffffffffff168273ffffffffffffffffffffffffffffffffffffffff161415610b27576040517f08c379a0000000000000000000000000000000000000000000000000000000008152600401610b1e90613ae8565b60405180910390fd5b600360008373ffffffffffffffffffffffffffffffffffffffff1673ffffffffffffffffffffffffffffffffffffffff168152602001908152602001600020549050919050565b606060018054610b7d90613f3d565b80601f0160208091040260200160405190810160405280929190818152602001828054610ba990613f3d565b8015610bf65780601f10610bcb57610100808354040283529160200191610bf6565b820191906000526020600020905b815481529060010190602001808311610bd957829003601f168201915b5050505050905090565b610c12610c0b611670565b8383611c59565b5050565b60088060000154905081565b6060600060405180602001604052806000815250905060005b6003811015610cfd5781600d8281548110610c7f577f4e487b7100000000000000000000000000000000000000000000000000000000600052603260045260246000fd5b90600052602060002001858360038110610cc2577f4e487b7100000000000000000000000000000000000000000000000000000000600052603260045260246000fd5b6020020151604051602001610cd993929190613775565b60405160208183030381529060405291508080610cf590613f6f565b915050610c3b565b5080915050919050565b600e6020528060005260406000206000915054906101000a900460ff1681565b60606000610d5b610d3784611a79565b604051602001610d479190613825565b604051602081830303815290604052611c26565b9050600b8054905081610d6e9190613fb8565b9050600b8181548110610daa577f4e487b7100000000000000000000000000000000000000000000000000000000600052603260045260246000fd5b906000526020600020018054610dbf90613f3d565b80601f0160208091040260200160405190810160405280929190818152602001828054610deb90613f3d565b8015610e385780601f10610e0d57610100808354040283529160200191610e38565b820191906000526020600020905b815481529060010190602001808311610e1b57829003601f168201915b5050505050915050919050565b610e56610e50611670565b8361173f565b610e95576040517f08c379a0000000000000000000000000000000000000000000000000000000008152600401610e8c90613c08565b60405180910390fd5b610ea184848484611dc6565b50505050565b60606000610edb610eb784611a79565b604051602001610ec79190613803565b604051602081830303815290604052611c26565b9050600c8054905081610eee9190613fb8565b9050600c8181548110610f2a577f4e487b7100000000000000000000000000000000000000000000000000000000600052603260045260246000fd5b906000526020600020018054610f3f90613f3d565b80601f0160208091040260200160405190810160405280929190818152602001828054610f6b90613f3d565b8015610fb85780601f10610f8d57610100808354040283529160200191610fb8565b820191906000526020600020905b815481529060010190602001808311610f9b57829003601f168201915b5050505050915050919050565b6060610fd082611604565b61100f576040517f08c379a000000000000000000000000000000000000000000000000000000000815260040161100690613b68565b60405180910390fd5b600060066000848152602001908152602001600020805461102f90613f3d565b80601f016020809104026020016040519081016040528092919081815260200182805461105b90613f3d565b80156110a85780601f1061107d576101008083540402835291602001916110a8565b820191906000526020600020905b81548152906001019060200180831161108b57829003601f168201915b5050505050905060006110b9611e22565b90506000815114156110cf578192505050611112565b6000825111156111045780826040516020016110ec92919061370a565b60405160208183030381529060405292505050611112565b61110d84611e39565b925050505b919050565b60326111236008611731565b10611163576040517f08c379a000000000000000000000000000000000000000000000000000000000815260040161115a90613aa8565b60405180910390fd5b61116c336109ae565b156111ac576040517f08c379a00000000000000000000000000000000000000000000000000000000081526004016111a390613c28565b60405180910390fd5b6111b66007611ee0565b60006111c26007611731565b905060006111d86111d36007611731565b611a79565b90506111e333611412565b60006111ee83610867565b905060006111fb84610d27565b9050600061120885610ea7565b905060008383836040516020016112219392919061372e565b60405160208183030381529060405290506000611257604051806060016040528087815260200186815260200185815250610c22565b905060008660405160200161126c91906138d0565b6040516020818303038152906040529050600060098284604051602001611295939291906137c7565b604051602081830303815290604052905060006112b182611ef6565b905060006112df86836040516020016112cb929190613847565b604051602081830303815290604052611ef6565b90506000816040516020016112f491906138ae565b60405160208183030381529060405290506113436040518060400160405280601581526020017f0a2d2d2d2d2d2d2d2d2d2d2d2d2d2d2d2d2d2d2d2d0000000000000000000000815250611501565b61134c84611501565b61138a6040518060400160405280601581526020017f2d2d2d2d2d2d2d2d2d2d2d2d2d2d2d2d2d2d2d2d0a0000000000000000000000815250611501565b611394338d6120b4565b61139e8c826120d2565b6113a86008611ee0565b6113cb604051806060016040528060258152602001614113602591398d33612146565b7febb98688741ffa4c7589bf325de30cf7becb63de567842e1ccdb6cb949fdc82c338d6040516113fc929190613964565b60405180910390a1505050505050505050505050565b6001600e60008373ffffffffffffffffffffffffffffffffffffffff1673ffffffffffffffffffffffffffffffffffffffff16815260200190815260200160002060006101000a81548160ff02191690831515021790555050565b6000600560008473ffffffffffffffffffffffffffffffffffffffff1673ffffffffffffffffffffffffffffffffffffffff16815260200190815260200160002060008373ffffffffffffffffffffffffffffffffffffffff1673ffffffffffffffffffffffffffffffffffffffff16815260200190815260200160002060009054906101000a900460ff16905092915050565b6115978160405160240161151591906139a8565b6040516020818303038152906040527f41304fac000000000000000000000000000000000000000000000000000000007bffffffffffffffffffffffffffffffffffffffffffffffffffffffff19166020820180517bffffffffffffffffffffffffffffffffffffffffffffffffffffffff83818316178352505050506121e5565b50565b60007f01ffc9a7000000000000000000000000000000000000000000000000000000007bffffffffffffffffffffffffffffffffffffffffffffffffffffffff1916827bffffffffffffffffffffffffffffffffffffffffffffffffffffffff1916149050919050565b60008073ffffffffffffffffffffffffffffffffffffffff166002600084815260200190815260200160002060009054906101000a900473ffffffffffffffffffffffffffffffffffffffff1673ffffffffffffffffffffffffffffffffffffffff1614159050919050565b600033905090565b816004600083815260200190815260200160002060006101000a81548173ffffffffffffffffffffffffffffffffffffffff021916908373ffffffffffffffffffffffffffffffffffffffff160217905550808273ffffffffffffffffffffffffffffffffffffffff166116eb83610a04565b73ffffffffffffffffffffffffffffffffffffffff167f8c5be1e5ebec7d5bd14f71427d1e84f3dd0314c0f7b2291e5b200ac8c7c3b92560405160405180910390a45050565b600081600001549050919050565b600061174a82611604565b611789576040517f08c379a000000000000000000000000000000000000000000000000000000000815260040161178090613a88565b60405180910390fd5b600061179483610a04565b90508073ffffffffffffffffffffffffffffffffffffffff168473ffffffffffffffffffffffffffffffffffffffff16148061180357508373ffffffffffffffffffffffffffffffffffffffff166117eb84610659565b73ffffffffffffffffffffffffffffffffffffffff16145b806118145750611813818561146d565b5b91505092915050565b8273ffffffffffffffffffffffffffffffffffffffff1661183d82610a04565b73ffffffffffffffffffffffffffffffffffffffff1614611893576040517f08c379a000000000000000000000000000000000000000000000000000000000815260040161188a90613ba8565b60405180910390fd5b600073ffffffffffffffffffffffffffffffffffffffff168273ffffffffffffffffffffffffffffffffffffffff161415611903576040517f08c379a00000000000000000000000000000000000000000000000000000000081526004016118fa90613a48565b60405180910390fd5b61190e83838361220e565b611919600082611678565b6001600360008573ffffffffffffffffffffffffffffffffffffffff1673ffffffffffffffffffffffffffffffffffffffff16815260200190815260200160002060008282546119699190613e53565b925050819055506001600360008473ffffffffffffffffffffffffffffffffffffffff1673ffffffffffffffffffffffffffffffffffffffff16815260200190815260200160002060008282546119c09190613d72565b92505081905550816002600083815260200190815260200160002060006101000a81548173ffffffffffffffffffffffffffffffffffffffff021916908373ffffffffffffffffffffffffffffffffffffffff160217905550808273ffffffffffffffffffffffffffffffffffffffff168473ffffffffffffffffffffffffffffffffffffffff167fddf252ad1be2c89b69c2b068fc378daa952ba7f163c4a11628f55a4df523b3ef60405160405180910390a4505050565b60606000821415611ac1576040518060400160405280600181526020017f30000000000000000000000000000000000000000000000000000000000000008152509050611c21565b600082905060005b60008214611af3578080611adc90613f6f565b915050600a82611aec9190613dc8565b9150611ac9565b60008167ffffffffffffffff811115611b35577f4e487b7100000000000000000000000000000000000000000000000000000000600052604160045260246000fd5b6040519080825280601f01601f191660200182016040528015611b675781602001600182028036833780820191505090505b5090505b60008514611c1a57600182611b809190613e53565b9150600a85611b8f9190613fb8565b6030611b9b9190613d72565b60f81b818381518110611bd7577f4e487b7100000000000000000000000000000000000000000000000000000000600052603260045260246000fd5b60200101907effffffffffffffffffffffffffffffffffffffffffffffffffffffffffffff1916908160001a905350600a85611c139190613dc8565b9450611b6b565b8093505050505b919050565b600081604051602001611c3991906136f3565b6040516020818303038152906040528051906020012060001c9050919050565b8173ffffffffffffffffffffffffffffffffffffffff168373ffffffffffffffffffffffffffffffffffffffff161415611cc8576040517f08c379a0000000000000000000000000000000000000000000000000000000008152600401611cbf90613a68565b60405180910390fd5b80600560008573ffffffffffffffffffffffffffffffffffffffff1673ffffffffffffffffffffffffffffffffffffffff16815260200190815260200160002060008473ffffffffffffffffffffffffffffffffffffffff1673ffffffffffffffffffffffffffffffffffffffff16815260200190815260200160002060006101000a81548160ff0219169083151502179055508173ffffffffffffffffffffffffffffffffffffffff168373ffffffffffffffffffffffffffffffffffffffff167f17307eab39ab6107e8899845ad3d59bd9653f200f220920489ca2b5937696c3183604051611db9919061398d565b60405180910390a3505050565b611dd184848461181d565b611ddd84848484612213565b611e1c576040517f08c379a0000000000000000000000000000000000000000000000000000000008152600401611e1390613a08565b60405180910390fd5b50505050565b606060405180602001604052806000815250905090565b6060611e4482611604565b611e83576040517f08c379a0000000000000000000000000000000000000000000000000000000008152600401611e7a90613bc8565b60405180910390fd5b6000611e8d611e22565b90506000815111611ead5760405180602001604052806000815250611ed8565b80611eb784611a79565b604051602001611ec892919061370a565b6040516020818303038152906040525b915050919050565b6001816000016000828254019250508190555050565b60606000825190506000811415611f1f57604051806020016040528060008152509150506120af565b60006003600283611f309190613d72565b611f3a9190613dc8565b6004611f469190613df9565b90506000602082611f579190613d72565b67ffffffffffffffff811115611f96577f4e487b7100000000000000000000000000000000000000000000000000000000600052604160045260246000fd5b6040519080825280601f01601f191660200182016040528015611fc85781602001600182028036833780820191505090505b5090506000604051806060016040528060408152602001614138604091399050600181016020830160005b8681101561206c5760038101905062ffffff818a015116603f8160121c168401518060081b905060ff603f83600c1c1686015116810190508060081b905060ff603f8360061c1686015116810190508060081b905060ff603f831686015116810190508060e01b90508084526004840193505050611ff3565b5060038606600181146120865760028114612096576120a1565b613d3d60f01b60028303526120a1565b603d60f81b60018303525b508484525050819450505050505b919050565b6120ce8282604051806020016040528060008152506123aa565b5050565b6120db82611604565b61211a576040517f08c379a000000000000000000000000000000000000000000000000000000000815260040161211190613b28565b60405180910390fd5b806006600084815260200190815260200160002090805190602001906121419291906125e6565b505050565b6121e083838360405160240161215e939291906139ca565b6040516020818303038152906040527fe3849f79000000000000000000000000000000000000000000000000000000007bffffffffffffffffffffffffffffffffffffffffffffffffffffffff19166020820180517bffffffffffffffffffffffffffffffffffffffffffffffffffffffff83818316178352505050506121e5565b505050565b60008151905060006a636f6e736f6c652e6c6f679050602083016000808483855afa5050505050565b505050565b60006122348473ffffffffffffffffffffffffffffffffffffffff16612405565b1561239d578373ffffffffffffffffffffffffffffffffffffffff1663150b7a0261225d611670565b8786866040518563ffffffff1660e01b815260040161227f9493929190613918565b602060405180830381600087803b15801561229957600080fd5b505af19250505080156122ca57506040513d601f19601f820116820180604052508101906122c79190612a4e565b60015b61234d573d80600081146122fa576040519150601f19603f3d011682016040523d82523d6000602084013e6122ff565b606091505b50600081511415612345576040517f08c379a000000000000000000000000000000000000000000000000000000000815260040161233c90613a08565b60405180910390fd5b805181602001fd5b63150b7a0260e01b7bffffffffffffffffffffffffffffffffffffffffffffffffffffffff1916817bffffffffffffffffffffffffffffffffffffffffffffffffffffffff1916149150506123a2565b600190505b949350505050565b6123b48383612418565b6123c16000848484612213565b612400576040517f08c379a00000000000000000000000000000000000000000000000000000000081526004016123f790613a08565b60405180910390fd5b505050565b600080823b905060008111915050919050565b600073ffffffffffffffffffffffffffffffffffffffff168273ffffffffffffffffffffffffffffffffffffffff161415612488576040517f08c379a000000000000000000000000000000000000000000000000000000000815260040161247f90613b48565b60405180910390fd5b61249181611604565b156124d1576040517f08c379a00000000000000000000000000000000000000000000000000000000081526004016124c890613a28565b60405180910390fd5b6124dd6000838361220e565b6001600360008473ffffffffffffffffffffffffffffffffffffffff1673ffffffffffffffffffffffffffffffffffffffff168152602001908152602001600020600082825461252d9190613d72565b92505081905550816002600083815260200190815260200160002060006101000a81548173ffffffffffffffffffffffffffffffffffffffff021916908373ffffffffffffffffffffffffffffffffffffffff160217905550808273ffffffffffffffffffffffffffffffffffffffff16600073ffffffffffffffffffffffffffffffffffffffff167fddf252ad1be2c89b69c2b068fc378daa952ba7f163c4a11628f55a4df523b3ef60405160405180910390a45050565b8280546125f290613f3d565b90600052602060002090601f016020900481019282612614576000855561265b565b82601f1061262d57805160ff191683800117855561265b565b8280016001018555821561265b579182015b8281111561265a57825182559160200191906001019061263f565b5b509050612668919061266c565b5090565b5b8082111561268557600081600090555060010161266d565b5090565b600061269c61269784613c94565b613c63565b9050808260005b858110156126d357813585016126b988826127fe565b8452602084019350602083019250506001810190506126a3565b5050509392505050565b60006126f06126eb84613cba565b613c63565b90508281526020810184848401111561270857600080fd5b612713848285613efb565b509392505050565b600061272e61272984613cea565b613c63565b90508281526020810184848401111561274657600080fd5b612751848285613efb565b509392505050565b600081359050612768816140b6565b92915050565b600082601f83011261277f57600080fd5b600361278c848285612689565b91505092915050565b6000813590506127a4816140cd565b92915050565b6000813590506127b9816140e4565b92915050565b6000815190506127ce816140e4565b92915050565b600082601f8301126127e557600080fd5b81356127f58482602086016126dd565b91505092915050565b600082601f83011261280f57600080fd5b813561281f84826020860161271b565b91505092915050565b600081359050612837816140fb565b92915050565b60006020828403121561284f57600080fd5b600061285d84828501612759565b91505092915050565b6000806040838503121561287957600080fd5b600061288785828601612759565b925050602061289885828601612759565b9150509250929050565b6000806000606084860312156128b757600080fd5b60006128c586828701612759565b93505060206128d686828701612759565b92505060406128e786828701612828565b9150509250925092565b6000806000806080858703121561290757600080fd5b600061291587828801612759565b945050602061292687828801612759565b935050604061293787828801612828565b925050606085013567ffffffffffffffff81111561295457600080fd5b612960878288016127d4565b91505092959194509250565b6000806040838503121561297f57600080fd5b600061298d85828601612759565b925050602061299e85828601612795565b9150509250929050565b600080604083850312156129bb57600080fd5b60006129c985828601612759565b92505060206129da85828601612828565b9150509250929050565b6000602082840312156129f657600080fd5b600082013567ffffffffffffffff811115612a1057600080fd5b612a1c8482850161276e565b91505092915050565b600060208284031215612a3757600080fd5b6000612a45848285016127aa565b91505092915050565b600060208284031215612a6057600080fd5b6000612a6e848285016127bf565b91505092915050565b600060208284031215612a8957600080fd5b6000612a9784828501612828565b91505092915050565b612aa981613e87565b82525050565b612ab881613e99565b82525050565b6000612ac982613d2f565b612ad38185613d45565b9350612ae3818560208601613f0a565b612aec816140a5565b840191505092915050565b6000612b0282613d3a565b612b0c8185613d56565b9350612b1c818560208601613f0a565b612b25816140a5565b840191505092915050565b6000612b3b82613d3a565b612b458185613d67565b9350612b55818560208601613f0a565b80840191505092915050565b60008154612b6e81613f3d565b612b788186613d67565b94506001821660008114612b935760018114612ba457612bd7565b60ff19831686528186019350612bd7565b612bad85613d1a565b60005b83811015612bcf57815481890152600182019150602081019050612bb0565b838801955050505b50505092915050565b6000612bed605183613d67565b91507f222c20226465736372697074696f6e223a202254687265652066756e6e79206c60008301527f6f6c206368616d70732e222c2022696d616765223a2022646174613a696d616760208301527f652f7376672b786d6c3b6261736536342c0000000000000000000000000000006040830152605182019050919050565b6000612c79603283613d56565b91507f4552433732313a207472616e7366657220746f206e6f6e20455243373231526560008301527f63656976657220696d706c656d656e74657200000000000000000000000000006020830152604082019050919050565b6000612cdf606a83613d67565b91507f252720646f6d696e616e742d626173656c696e653d276d6964646c652720746560008301527f78742d616e63686f723d276d6964646c6527207374796c653d2766696c6c3a2360208301527f6666663b666f6e742d66616d696c793a6d6f6e6f73706163653b666f6e742d7360408301527f697a653a32347078273e000000000000000000000000000000000000000000006060830152606a82019050919050565b6000612d91601c83613d56565b91507f4552433732313a20746f6b656e20616c7265616479206d696e746564000000006000830152602082019050919050565b6000612dd1600a83613d67565b91507f54484952445f574f5244000000000000000000000000000000000000000000006000830152600a82019050919050565b6000612e11602483613d56565b91507f4552433732313a207472616e7366657220746f20746865207a65726f2061646460008301527f72657373000000000000000000000000000000000000000000000000000000006020830152604082019050919050565b6000612e77601983613d56565b91507f4552433732313a20617070726f766520746f2063616c6c6572000000000000006000830152602082019050919050565b6000612eb7600b83613d67565b91507f5345434f4e445f574f52440000000000000000000000000000000000000000006000830152600b82019050919050565b6000612ef7602c83613d56565b91507f4552433732313a206f70657261746f7220717565727920666f72206e6f6e657860008301527f697374656e7420746f6b656e00000000000000000000000000000000000000006020830152604082019050919050565b6000612f5d600183613d67565b91507f20000000000000000000000000000000000000000000000000000000000000006000830152600182019050919050565b6000612f9d602983613d56565b91507f5468652077686f6c65204e465420636f6c6c656374696f6e206861732062656560008301527f6e206d696e7465642100000000000000000000000000000000000000000000006020830152604082019050919050565b6000613003603883613d56565b91507f4552433732313a20617070726f76652063616c6c6572206973206e6f74206f7760008301527f6e6572206e6f7220617070726f76656420666f7220616c6c00000000000000006020830152604082019050919050565b6000613069602a83613d56565b91507f4552433732313a2062616c616e636520717565727920666f7220746865207a6560008301527f726f2061646472657373000000000000000000000000000000000000000000006020830152604082019050919050565b60006130cf602983613d56565b91507f4552433732313a206f776e657220717565727920666f72206e6f6e657869737460008301527f656e7420746f6b656e00000000000000000000000000000000000000000000006020830152604082019050919050565b6000613135602e83613d56565b91507f45524337323155524953746f726167653a2055524920736574206f66206e6f6e60008301527f6578697374656e7420746f6b656e0000000000000000000000000000000000006020830152604082019050919050565b600061319b600283613d67565b91507f227d0000000000000000000000000000000000000000000000000000000000006000830152600282019050919050565b60006131db600783613d67565b91507f3c2f746578743e000000000000000000000000000000000000000000000000006000830152600782019050919050565b600061321b602083613d56565b91507f4552433732313a206d696e7420746f20746865207a65726f20616464726573736000830152602082019050919050565b600061325b603183613d56565b91507f45524337323155524953746f726167653a2055524920717565727920666f722060008301527f6e6f6e6578697374656e7420746f6b656e0000000000000000000000000000006020830152604082019050919050565b60006132c1602c83613d56565b91507f4552433732313a20617070726f76656420717565727920666f72206e6f6e657860008301527f697374656e7420746f6b656e00000000000000000000000000000000000000006020830152604082019050919050565b6000613327602983613d56565b91507f4552433732313a207472616e73666572206f6620746f6b656e2074686174206960008301527f73206e6f74206f776e00000000000000000000000000000000000000000000006020830152604082019050919050565b600061338d602f83613d56565b91507f4552433732314d657461646174613a2055524920717565727920666f72206e6f60008301527f6e6578697374656e7420746f6b656e00000000000000000000000000000000006020830152604082019050919050565b60006133f3601183613d67565b91507f3c7465787420783d273530252720793d270000000000000000000000000000006000830152601182019050919050565b6000613433600a83613d67565b91507f7b226e616d65223a2022000000000000000000000000000000000000000000006000830152600a82019050919050565b6000613473602183613d56565b91507f4552433732313a20617070726f76616c20746f2063757272656e74206f776e6560008301527f72000000000000000000000000000000000000000000000000000000000000006020830152604082019050919050565b60006134d9600a83613d67565b91507f46495253545f574f5244000000000000000000000000000000000000000000006000830152600a82019050919050565b6000613519601d83613d67565b91507f646174613a6170706c69636174696f6e2f6a736f6e3b6261736536342c0000006000830152601d82019050919050565b6000613559603183613d56565b91507f4552433732313a207472616e736665722063616c6c6572206973206e6f74206f60008301527f776e6572206e6f7220617070726f7665640000000000000000000000000000006020830152604082019050919050565b60006135bf600683613d67565b91507f3c2f7376673e00000000000000000000000000000000000000000000000000006000830152600682019050919050565b60006135ff607e83613d67565b91507f3c7465787420783d273130252720793d273130252720646f6d696e616e742d6260008301527f6173656c696e653d276d6964646c652720746578742d616e63686f723d276d6960208301527f64646c6527207374796c653d2766696c6c3a236666663b666f6e742d66616d6960408301527f6c793a6d6f6e6f73706163653b666f6e742d73697a653a32347078273e2300006060830152607e82019050919050565b60006136b1602083613d56565b91507f596f752063616e2774206d616b65206d6f7265207468616e20616e204e4654216000830152602082019050919050565b6136ed81613ef1565b82525050565b60006136ff8284612b30565b915081905092915050565b60006137168285612b30565b91506137228284612b30565b91508190509392505050565b600061373a8286612b30565b915061374582612f50565b91506137518285612b30565b915061375c82612f50565b91506137688284612b30565b9150819050949350505050565b60006137818286612b30565b915061378c826133e6565b91506137988285612b61565b91506137a382612cd2565b91506137af8284612b30565b91506137ba826131ce565b9150819050949350505050565b60006137d38286612b61565b91506137df8285612b30565b91506137eb8284612b30565b91506137f6826135b2565b9150819050949350505050565b600061380e82612dc4565b915061381a8284612b30565b915081905092915050565b600061383082612eaa565b915061383c8284612b30565b915081905092915050565b600061385282613426565b915061385e8285612b30565b915061386982612be0565b91506138758284612b30565b91506138808261318e565b91508190509392505050565b6000613897826134cc565b91506138a38284612b30565b915081905092915050565b60006138b98261350c565b91506138c58284612b30565b915081905092915050565b60006138db826135f2565b91506138e78284612b30565b91506138f2826131ce565b915081905092915050565b60006020820190506139126000830184612aa0565b92915050565b600060808201905061392d6000830187612aa0565b61393a6020830186612aa0565b61394760408301856136e4565b81810360608301526139598184612abe565b905095945050505050565b60006040820190506139796000830185612aa0565b61398660208301846136e4565b9392505050565b60006020820190506139a26000830184612aaf565b92915050565b600060208201905081810360008301526139c28184612af7565b905092915050565b600060608201905081810360008301526139e48186612af7565b90506139f360208301856136e4565b613a006040830184612aa0565b949350505050565b60006020820190508181036000830152613a2181612c6c565b9050919050565b60006020820190508181036000830152613a4181612d84565b9050919050565b60006020820190508181036000830152613a6181612e04565b9050919050565b60006020820190508181036000830152613a8181612e6a565b9050919050565b60006020820190508181036000830152613aa181612eea565b9050919050565b60006020820190508181036000830152613ac181612f90565b9050919050565b60006020820190508181036000830152613ae181612ff6565b9050919050565b60006020820190508181036000830152613b018161305c565b9050919050565b60006020820190508181036000830152613b21816130c2565b9050919050565b60006020820190508181036000830152613b4181613128565b9050919050565b60006020820190508181036000830152613b618161320e565b9050919050565b60006020820190508181036000830152613b818161324e565b9050919050565b60006020820190508181036000830152613ba1816132b4565b9050919050565b60006020820190508181036000830152613bc18161331a565b9050919050565b60006020820190508181036000830152613be181613380565b9050919050565b60006020820190508181036000830152613c0181613466565b9050919050565b60006020820190508181036000830152613c218161354c565b9050919050565b60006020820190508181036000830152613c41816136a4565b9050919050565b6000602082019050613c5d60008301846136e4565b92915050565b6000604051905081810181811067ffffffffffffffff82111715613c8a57613c89614076565b5b8060405250919050565b600067ffffffffffffffff821115613caf57613cae614076565b5b602082029050919050565b600067ffffffffffffffff821115613cd557613cd4614076565b5b601f19601f8301169050602081019050919050565b600067ffffffffffffffff821115613d0557613d04614076565b5b601f19601f8301169050602081019050919050565b60008190508160005260206000209050919050565b600081519050919050565b600081519050919050565b600082825260208201905092915050565b600082825260208201905092915050565b600081905092915050565b6000613d7d82613ef1565b9150613d8883613ef1565b9250827fffffffffffffffffffffffffffffffffffffffffffffffffffffffffffffffff03821115613dbd57613dbc613fe9565b5b828201905092915050565b6000613dd382613ef1565b9150613dde83613ef1565b925082613dee57613ded614018565b5b828204905092915050565b6000613e0482613ef1565b9150613e0f83613ef1565b9250817fffffffffffffffffffffffffffffffffffffffffffffffffffffffffffffffff0483118215151615613e4857613e47613fe9565b5b828202905092915050565b6000613e5e82613ef1565b9150613e6983613ef1565b925082821015613e7c57613e7b613fe9565b5b828203905092915050565b6000613e9282613ed1565b9050919050565b60008115159050919050565b60007fffffffff0000000000000000000000000000000000000000000000000000000082169050919050565b600073ffffffffffffffffffffffffffffffffffffffff82169050919050565b6000819050919050565b82818337600083830152505050565b60005b83811015613f28578082015181840152602081019050613f0d565b83811115613f37576000848401525b50505050565b60006002820490506001821680613f5557607f821691505b60208210811415613f6957613f68614047565b5b50919050565b6000613f7a82613ef1565b91507fffffffffffffffffffffffffffffffffffffffffffffffffffffffffffffffff821415613fad57613fac613fe9565b5b600182019050919050565b6000613fc382613ef1565b9150613fce83613ef1565b925082613fde57613fdd614018565b5b828206905092915050565b7f4e487b7100000000000000000000000000000000000000000000000000000000600052601160045260246000fd5b7f4e487b7100000000000000000000000000000000000000000000000000000000600052601260045260246000fd5b7f4e487b7100000000000000000000000000000000000000000000000000000000600052602260045260246000fd5b7f4e487b7100000000000000000000000000000000000000000000000000000000600052604160045260246000fd5b6000601f19601f8301169050919050565b6140bf81613e87565b81146140ca57600080fd5b50565b6140d681613e99565b81146140e157600080fd5b50565b6140ed81613ea5565b81146140f857600080fd5b50565b61410481613ef1565b811461410f57600080fd5b5056fe416e204e465420772f20494420257320686173206265656e206d696e74656420746f2025734142434445464748494a4b4c4d4e4f505152535455565758595a6162636465666768696a6b6c6d6e6f707172737475767778797a303132333435363738392b2fa2646970667358221220a691aeae99e7bae5f9646c4c4a1eb96864d17b81a217987f79460acf85da6db864736f6c634300080000333c73766720786d6c6e733d27687474703a2f2f7777772e77332e6f72672f323030302f73766727207072657365727665417370656374526174696f3d27784d696e594d696e206d656574272076696577426f783d273020302033353020333530273e3c726563742077696474683d273130302527206865696768743d2731303025272f3e",
  "linkReferences": {},
  "deployedLinkReferences": {}
}